{"abi":[{"type":"constructor","inputs":[{"name":"_owner","type":"address","internalType":"address"}],"stateMutability":"nonpayable"},{"type":"receive","stateMutability":"payable"},{"type":"function","name":"greeting","inputs":[],"outputs":[{"name":"","type":"string","internalType":"string"}],"stateMutability":"view"},{"type":"function","name":"owner","inputs":[],"outputs":[{"name":"","type":"address","internalType":"address"}],"stateMutability":"view"},{"type":"function","name":"premium","inputs":[],"outputs":[{"name":"","type":"bool","internalType":"bool"}],"stateMutability":"view"},{"type":"function","name":"setGreeting","inputs":[{"name":"_newGreeting","type":"string","internalType":"string"}],"outputs":[],"stateMutability":"payable"},{"type":"function","name":"totalCounter","inputs":[],"outputs":[{"name":"","type":"uint256","internalType":"uint256"}],"stateMutability":"view"},{"type":"function","name":"userGreetingCounter","inputs":[{"name":"","type":"address","internalType":"address"}],"outputs":[{"name":"","type":"uint256","internalType":"uint256"}],"stateMutability":"view"},{"type":"function","name":"withdraw","inputs":[],"outputs":[],"stateMutability":"nonpayable"},{"type":"event","name":"GreetingChange","inputs":[{"name":"greetingSetter","type":"address","indexed":true,"internalType":"address"},{"name":"newGreeting","type":"string","indexed":false,"internalType":"string"},{"name":"premium","type":"bool","indexed":false,"internalType":"bool"},{"name":"value","type":"uint256","indexed":false,"internalType":"uint256"}],"anonymous":false}],"bytecode":{"object":"0x60e0604052601c60a09081527f4275696c64696e6720556e73746f707061626c6520417070732121210000000060c0526000906200003e908262000137565b506001805460ff1916905560006002553480156200005b57600080fd5b5060405162000c6338038062000c638339810160408190526200007e9162000203565b6001600160a01b031660805262000235565b634e487b7160e01b600052604160045260246000fd5b600181811c90821680620000bb57607f821691505b602082108103620000dc57634e487b7160e01b600052602260045260246000fd5b50919050565b601f82111562000132576000816000526020600020601f850160051c810160208610156200010d5750805b601f850160051c820191505b818110156200012e5782815560010162000119565b5050505b505050565b81516001600160401b0381111562000153576200015362000090565b6200016b81620001648454620000a6565b84620000e2565b602080601f831160018114620001a357600084156200018a5750858301515b600019600386901b1c1916600185901b1785556200012e565b600085815260208120601f198616915b82811015620001d457888601518255948401946001909101908401620001b3565b5085821015620001f35787850151600019600388901b60f8161c191681555b5050505050600190811b01905550565b6000602082840312156200021657600080fd5b81516001600160a01b03811681146200022e57600080fd5b9392505050565b608051610a056200025e6000396000818160a9015281816101bd015261024d0152610a056000f3fe6080604052600436106100745760003560e01c8063a41368621161004e578063a413686214610119578063cea49c3c1461012c578063e0a73a9314610159578063ef690cc01461018357600080fd5b80633ccfd60b146100805780638da5cb5b1461009757806397feba9d146100f557600080fd5b3661007b57005b600080fd5b34801561008c57600080fd5b506100956101a5565b005b3480156100a357600080fd5b506100cb7f000000000000000000000000000000000000000000000000000000000000000081565b60405173ffffffffffffffffffffffffffffffffffffffff90911681526020015b60405180910390f35b34801561010157600080fd5b5061010b60025481565b6040519081526020016100ec565b6100956101273660046105bd565b610336565b34801561013857600080fd5b5061010b61014736600461068c565b60036020526000908152604090205481565b34801561016557600080fd5b506001546101739060ff1681565b60405190151581526020016100ec565b34801561018f57600080fd5b50610198610443565b6040516100ec919061072d565b3373ffffffffffffffffffffffffffffffffffffffff7f00000000000000000000000000000000000000000000000000000000000000001614610249576040517f08c379a000000000000000000000000000000000000000000000000000000000815260206004820152600d60248201527f4e6f7420746865204f776e65720000000000000000000000000000000000000060448201526064015b60405180910390fd5b60007f000000000000000000000000000000000000000000000000000000000000000073ffffffffffffffffffffffffffffffffffffffff164760405160006040518083038185875af1925050503d80600081146102c3576040519150601f19603f3d011682016040523d82523d6000602084013e6102c8565b606091505b5050905080610333576040517f08c379a000000000000000000000000000000000000000000000000000000000815260206004820152601460248201527f4661696c656420746f2073656e642045746865720000000000000000000000006044820152606401610240565b50565b6103596040518060600160405280602181526020016109af6021913982336104d1565b600061036582826107e3565b5060016002600082825461037991906108fd565b909155505033600090815260036020526040812080546001929061039e9084906108fd565b909155505034156103d857600180547fffffffffffffffffffffffffffffffffffffffffffffffffffffffffffffff001681179055610401565b600180547fffffffffffffffffffffffffffffffffffffffffffffffffffffffffffffff001690555b60405133907f94cbd7e04dca26a7667654f6448b2ca0a40fec602118dc5fd8c82b9cf3c645ad90610438908490348015159161093d565b60405180910390a250565b6000805461045090610740565b80601f016020809104026020016040519081016040528092919081815260200182805461047c90610740565b80156104c95780601f1061049e576101008083540402835291602001916104c9565b820191906000526020600020905b8154815290600101906020018083116104ac57829003601f168201915b505050505081565b6105648383836040516024016104e993929190610962565b604080517fffffffffffffffffffffffffffffffffffffffffffffffffffffffffffffffe08184030181529190526020810180517bffffffffffffffffffffffffffffffffffffffffffffffffffffffff167f95ed019500000000000000000000000000000000000000000000000000000000179052610569565b505050565b6103338160006a636f6e736f6c652e6c6f679050600080835160208501845afa505050565b7f4e487b7100000000000000000000000000000000000000000000000000000000600052604160045260246000fd5b6000602082840312156105cf57600080fd5b813567ffffffffffffffff808211156105e757600080fd5b818401915084601f8301126105fb57600080fd5b81358181111561060d5761060d61058e565b604051601f82017fffffffffffffffffffffffffffffffffffffffffffffffffffffffffffffffe0908116603f011681019083821181831017156106535761065361058e565b8160405282815287602084870101111561066c57600080fd5b826020860160208301376000928101602001929092525095945050505050565b60006020828403121561069e57600080fd5b813573ffffffffffffffffffffffffffffffffffffffff811681146106c257600080fd5b9392505050565b6000815180845260005b818110156106ef576020818501810151868301820152016106d3565b5060006020828601015260207fffffffffffffffffffffffffffffffffffffffffffffffffffffffffffffffe0601f83011685010191505092915050565b6020815260006106c260208301846106c9565b600181811c9082168061075457607f821691505b60208210810361078d577f4e487b7100000000000000000000000000000000000000000000000000000000600052602260045260246000fd5b50919050565b601f821115610564576000816000526020600020601f850160051c810160208610156107bc5750805b601f850160051c820191505b818110156107db578281556001016107c8565b505050505050565b815167ffffffffffffffff8111156107fd576107fd61058e565b6108118161080b8454610740565b84610793565b602080601f831160018114610864576000841561082e5750858301515b7fffffffffffffffffffffffffffffffffffffffffffffffffffffffffffffffff600386901b1c1916600185901b1785556107db565b6000858152602081207fffffffffffffffffffffffffffffffffffffffffffffffffffffffffffffffe08616915b828110156108b157888601518255948401946001909101908401610892565b50858210156108ed57878501517fffffffffffffffffffffffffffffffffffffffffffffffffffffffffffffffff600388901b60f8161c191681555b5050505050600190811b01905550565b80820180821115610937577f4e487b7100000000000000000000000000000000000000000000000000000000600052601160045260246000fd5b92915050565b60608152600061095060608301866106c9565b93151560208301525060400152919050565b60608152600061097560608301866106c9565b828103602084015261098781866106c9565b91505073ffffffffffffffffffffffffffffffffffffffff8316604083015294935050505056fe53657474696e67206e6577206772656574696e6720272573272066726f6d202573a26469706673582212202e48558fe73b347616a572495362a92581784bac6800d63ae345e6447750823d64736f6c63430008180033","linkReferences":{}},"methodIdentifiers":{"greeting()":"ef690cc0","owner()":"8da5cb5b","premium()":"e0a73a93","setGreeting(string)":"a4136862","totalCounter()":"97feba9d","userGreetingCounter(address)":"cea49c3c","withdraw()":"3ccfd60b"},"id":0}