{"abi":[{"type":"constructor","inputs":[{"name":"_asset","type":"address","internalType":"contract IERC20"},{"name":"_basisPoints","type":"uint256","internalType":"uint256"}],"stateMutability":"nonpayable"},{"type":"function","name":"allowance","inputs":[{"name":"owner","type":"address","internalType":"address"},{"name":"spender","type":"address","internalType":"address"}],"outputs":[{"name":"","type":"uint256","internalType":"uint256"}],"stateMutability":"view"},{"type":"function","name":"approve","inputs":[{"name":"spender","type":"address","internalType":"address"},{"name":"value","type":"uint256","internalType":"uint256"}],"outputs":[{"name":"","type":"bool","internalType":"bool"}],"stateMutability":"nonpayable"},{"type":"function","name":"asset","inputs":[],"outputs":[{"name":"","type":"address","internalType":"address"}],"stateMutability":"view"},{"type":"function","name":"balanceOf","inputs":[{"name":"account","type":"address","internalType":"address"}],"outputs":[{"name":"","type":"uint256","internalType":"uint256"}],"stateMutability":"view"},{"type":"function","name":"convertToAssets","inputs":[{"name":"shares","type":"uint256","internalType":"uint256"}],"outputs":[{"name":"","type":"uint256","internalType":"uint256"}],"stateMutability":"view"},{"type":"function","name":"convertToShares","inputs":[{"name":"assets","type":"uint256","internalType":"uint256"}],"outputs":[{"name":"","type":"uint256","internalType":"uint256"}],"stateMutability":"view"},{"type":"function","name":"decimals","inputs":[],"outputs":[{"name":"","type":"uint8","internalType":"uint8"}],"stateMutability":"view"},{"type":"function","name":"deposit","inputs":[{"name":"assets","type":"uint256","internalType":"uint256"},{"name":"receiver","type":"address","internalType":"address"}],"outputs":[{"name":"","type":"uint256","internalType":"uint256"}],"stateMutability":"nonpayable"},{"type":"function","name":"entryFeeBasisPoints","inputs":[],"outputs":[{"name":"","type":"uint256","internalType":"uint256"}],"stateMutability":"view"},{"type":"function","name":"maxDeposit","inputs":[{"name":"","type":"address","internalType":"address"}],"outputs":[{"name":"","type":"uint256","internalType":"uint256"}],"stateMutability":"view"},{"type":"function","name":"maxMint","inputs":[{"name":"","type":"address","internalType":"address"}],"outputs":[{"name":"","type":"uint256","internalType":"uint256"}],"stateMutability":"view"},{"type":"function","name":"maxRedeem","inputs":[{"name":"owner","type":"address","internalType":"address"}],"outputs":[{"name":"","type":"uint256","internalType":"uint256"}],"stateMutability":"view"},{"type":"function","name":"maxWithdraw","inputs":[{"name":"owner","type":"address","internalType":"address"}],"outputs":[{"name":"","type":"uint256","internalType":"uint256"}],"stateMutability":"view"},{"type":"function","name":"mint","inputs":[{"name":"shares","type":"uint256","internalType":"uint256"},{"name":"receiver","type":"address","internalType":"address"}],"outputs":[{"name":"","type":"uint256","internalType":"uint256"}],"stateMutability":"nonpayable"},{"type":"function","name":"name","inputs":[],"outputs":[{"name":"","type":"string","internalType":"string"}],"stateMutability":"view"},{"type":"function","name":"previewDeposit","inputs":[{"name":"assets","type":"uint256","internalType":"uint256"}],"outputs":[{"name":"","type":"uint256","internalType":"uint256"}],"stateMutability":"view"},{"type":"function","name":"previewMint","inputs":[{"name":"shares","type":"uint256","internalType":"uint256"}],"outputs":[{"name":"","type":"uint256","internalType":"uint256"}],"stateMutability":"view"},{"type":"function","name":"previewRedeem","inputs":[{"name":"shares","type":"uint256","internalType":"uint256"}],"outputs":[{"name":"","type":"uint256","internalType":"uint256"}],"stateMutability":"view"},{"type":"function","name":"previewWithdraw","inputs":[{"name":"assets","type":"uint256","internalType":"uint256"}],"outputs":[{"name":"","type":"uint256","internalType":"uint256"}],"stateMutability":"view"},{"type":"function","name":"redeem","inputs":[{"name":"shares","type":"uint256","internalType":"uint256"},{"name":"receiver","type":"address","internalType":"address"},{"name":"owner","type":"address","internalType":"address"}],"outputs":[{"name":"","type":"uint256","internalType":"uint256"}],"stateMutability":"nonpayable"},{"type":"function","name":"symbol","inputs":[],"outputs":[{"name":"","type":"string","internalType":"string"}],"stateMutability":"view"},{"type":"function","name":"totalAssets","inputs":[],"outputs":[{"name":"","type":"uint256","internalType":"uint256"}],"stateMutability":"view"},{"type":"function","name":"totalSupply","inputs":[],"outputs":[{"name":"","type":"uint256","internalType":"uint256"}],"stateMutability":"view"},{"type":"function","name":"transfer","inputs":[{"name":"to","type":"address","internalType":"address"},{"name":"value","type":"uint256","internalType":"uint256"}],"outputs":[{"name":"","type":"bool","internalType":"bool"}],"stateMutability":"nonpayable"},{"type":"function","name":"transferFrom","inputs":[{"name":"from","type":"address","internalType":"address"},{"name":"to","type":"address","internalType":"address"},{"name":"value","type":"uint256","internalType":"uint256"}],"outputs":[{"name":"","type":"bool","internalType":"bool"}],"stateMutability":"nonpayable"},{"type":"function","name":"vaultOwner","inputs":[],"outputs":[{"name":"","type":"address","internalType":"address payable"}],"stateMutability":"view"},{"type":"function","name":"withdraw","inputs":[{"name":"assets","type":"uint256","internalType":"uint256"},{"name":"receiver","type":"address","internalType":"address"},{"name":"owner","type":"address","internalType":"address"}],"outputs":[{"name":"","type":"uint256","internalType":"uint256"}],"stateMutability":"nonpayable"},{"type":"event","name":"Approval","inputs":[{"name":"owner","type":"address","indexed":true,"internalType":"address"},{"name":"spender","type":"address","indexed":true,"internalType":"address"},{"name":"value","type":"uint256","indexed":false,"internalType":"uint256"}],"anonymous":false},{"type":"event","name":"Deposit","inputs":[{"name":"sender","type":"address","indexed":true,"internalType":"address"},{"name":"owner","type":"address","indexed":true,"internalType":"address"},{"name":"assets","type":"uint256","indexed":false,"internalType":"uint256"},{"name":"shares","type":"uint256","indexed":false,"internalType":"uint256"}],"anonymous":false},{"type":"event","name":"Transfer","inputs":[{"name":"from","type":"address","indexed":true,"internalType":"address"},{"name":"to","type":"address","indexed":true,"internalType":"address"},{"name":"value","type":"uint256","indexed":false,"internalType":"uint256"}],"anonymous":false},{"type":"event","name":"Withdraw","inputs":[{"name":"sender","type":"address","indexed":true,"internalType":"address"},{"name":"receiver","type":"address","indexed":true,"internalType":"address"},{"name":"owner","type":"address","indexed":true,"internalType":"address"},{"name":"assets","type":"uint256","indexed":false,"internalType":"uint256"},{"name":"shares","type":"uint256","indexed":false,"internalType":"uint256"}],"anonymous":false},{"type":"error","name":"AddressEmptyCode","inputs":[{"name":"target","type":"address","internalType":"address"}]},{"type":"error","name":"AddressInsufficientBalance","inputs":[{"name":"account","type":"address","internalType":"address"}]},{"type":"error","name":"ERC20InsufficientAllowance","inputs":[{"name":"spender","type":"address","internalType":"address"},{"name":"allowance","type":"uint256","internalType":"uint256"},{"name":"needed","type":"uint256","internalType":"uint256"}]},{"type":"error","name":"ERC20InsufficientBalance","inputs":[{"name":"sender","type":"address","internalType":"address"},{"name":"balance","type":"uint256","internalType":"uint256"},{"name":"needed","type":"uint256","internalType":"uint256"}]},{"type":"error","name":"ERC20InvalidApprover","inputs":[{"name":"approver","type":"address","internalType":"address"}]},{"type":"error","name":"ERC20InvalidReceiver","inputs":[{"name":"receiver","type":"address","internalType":"address"}]},{"type":"error","name":"ERC20InvalidSender","inputs":[{"name":"sender","type":"address","internalType":"address"}]},{"type":"error","name":"ERC20InvalidSpender","inputs":[{"name":"spender","type":"address","internalType":"address"}]},{"type":"error","name":"ERC4626ExceededMaxDeposit","inputs":[{"name":"receiver","type":"address","internalType":"address"},{"name":"assets","type":"uint256","internalType":"uint256"},{"name":"max","type":"uint256","internalType":"uint256"}]},{"type":"error","name":"ERC4626ExceededMaxMint","inputs":[{"name":"receiver","type":"address","internalType":"address"},{"name":"shares","type":"uint256","internalType":"uint256"},{"name":"max","type":"uint256","internalType":"uint256"}]},{"type":"error","name":"ERC4626ExceededMaxRedeem","inputs":[{"name":"owner","type":"address","internalType":"address"},{"name":"shares","type":"uint256","internalType":"uint256"},{"name":"max","type":"uint256","internalType":"uint256"}]},{"type":"error","name":"ERC4626ExceededMaxWithdraw","inputs":[{"name":"owner","type":"address","internalType":"address"},{"name":"assets","type":"uint256","internalType":"uint256"},{"name":"max","type":"uint256","internalType":"uint256"}]},{"type":"error","name":"FailedInnerCall","inputs":[]},{"type":"error","name":"MathOverflowedMulDiv","inputs":[]},{"type":"error","name":"SafeERC20FailedOperation","inputs":[{"name":"token","type":"address","internalType":"address"}]}],"bytecode":{"object":"0x60c06040523480156200001157600080fd5b5060405162001e6638038062001e668339810160408190526200003491620001dd565b816040518060400160405280601281526020017129b430b932b9902b30bab63a102a37b5b2b760711b815250604051806040016040528060048152602001633b29a42960e11b81525081600390816200008e9190620002c0565b5060046200009d8282620002c0565b505050600080620000b483620000f860201b60201c565b9150915081620000c6576012620000c8565b805b60ff1660a05250506001600160a01b0316608052600580546001600160a01b0319163317905560065550620003d7565b60408051600481526024810182526020810180516001600160e01b031663313ce56760e01b17905290516000918291829182916001600160a01b0387169162000141916200038c565b600060405180830381855afa9150503d80600081146200017e576040519150601f19603f3d011682016040523d82523d6000602084013e62000183565b606091505b50915091508180156200019857506020815110155b15620001d057600081806020019051810190620001b69190620003bd565b905060ff8111620001ce576001969095509350505050565b505b5060009485945092505050565b60008060408385031215620001f157600080fd5b82516001600160a01b03811681146200020957600080fd5b6020939093015192949293505050565b634e487b7160e01b600052604160045260246000fd5b600181811c908216806200024457607f821691505b6020821081036200026557634e487b7160e01b600052602260045260246000fd5b50919050565b601f821115620002bb576000816000526020600020601f850160051c81016020861015620002965750805b601f850160051c820191505b81811015620002b757828155600101620002a2565b5050505b505050565b81516001600160401b03811115620002dc57620002dc62000219565b620002f481620002ed84546200022f565b846200026b565b602080601f8311600181146200032c5760008415620003135750858301515b600019600386901b1c1916600185901b178555620002b7565b600085815260208120601f198616915b828110156200035d578886015182559484019460019091019084016200033c565b50858210156200037c5787850151600019600388901b60f8161c191681555b5050505050600190811b01905550565b6000825160005b81811015620003af576020818601810151858301520162000393565b506000920191825250919050565b600060208284031215620003d057600080fd5b5051919050565b60805160a051611a466200042060003960006106330152600081816102b30152818161049901528181610af301528181610b8001528181610f26015261108d0152611a466000f3fe608060405234801561001057600080fd5b50600436106101b95760003560e01c806370a08231116100f9578063ba0af7a911610097578063ce96cb7711610071578063ce96cb77146103e9578063d905777e146103fc578063dd62ed3e1461040f578063ef8b30f71461045557600080fd5b8063ba0af7a9146103cd578063c63d75b6146102d7578063c6e6f592146103d657600080fd5b8063a9059cbb116100d3578063a9059cbb14610381578063b3d7f6b914610394578063b460af94146103a7578063ba087652146103ba57600080fd5b806370a082311461033057806394bf804d1461036657806395d89b411461037957600080fd5b80631f52692b1161016657806338d52e0f1161014057806338d52e0f146102b1578063402d267d146102d75780634cdad5061461030a5780636e553f651461031d57600080fd5b80631f52692b1461023f57806323b872dd14610284578063313ce5671461029757600080fd5b8063095ea7b311610197578063095ea7b3146102015780630a28a4771461022457806318160ddd1461023757600080fd5b806301e1d114146101be57806306fdde03146101d957806307a2d13a146101ee575b600080fd5b6101c6610468565b6040519081526020015b60405180910390f35b6101e161051e565b6040516101d0919061157c565b6101c66101fc3660046115cd565b6105b0565b61021461020f36600461160f565b6105c3565b60405190151581526020016101d0565b6101c66102323660046115cd565b6105db565b6002546101c6565b60055461025f9073ffffffffffffffffffffffffffffffffffffffff1681565b60405173ffffffffffffffffffffffffffffffffffffffff90911681526020016101d0565b610214610292366004611639565b610607565b61029f61062b565b60405160ff90911681526020016101d0565b7f000000000000000000000000000000000000000000000000000000000000000061025f565b6101c66102e5366004611675565b507fffffffffffffffffffffffffffffffffffffffffffffffffffffffffffffffff90565b6101c66103183660046115cd565b610657565b6101c661032b366004611690565b61067a565b6101c661033e366004611675565b73ffffffffffffffffffffffffffffffffffffffff1660009081526020819052604090205490565b6101c6610374366004611690565b6106a3565b6101e16106c2565b61021461038f36600461160f565b6106d1565b6101c66103a23660046115cd565b6106df565b6101c66103b53660046116bc565b610704565b6101c66103c83660046116bc565b61079a565b6101c660065481565b6101c66103e43660046115cd565b610828565b6101c66103f7366004611675565b610835565b6101c661040a366004611675565b610866565b6101c661041d3660046116f8565b73ffffffffffffffffffffffffffffffffffffffff918216600090815260016020908152604080832093909416825291909152205490565b6101c66104633660046115cd565b610891565b6040517f70a082310000000000000000000000000000000000000000000000000000000081523060048201526000907f000000000000000000000000000000000000000000000000000000000000000073ffffffffffffffffffffffffffffffffffffffff16906370a0823190602401602060405180830381865afa1580156104f5573d6000803e3d6000fd5b505050506040513d601f19601f820116820180604052508101906105199190611722565b905090565b60606003805461052d9061173b565b80601f01602080910402602001604051908101604052809291908181526020018280546105599061173b565b80156105a65780601f1061057b576101008083540402835291602001916105a6565b820191906000526020600020905b81548152906001019060200180831161058957829003601f168201915b5050505050905090565b60006105bd8260006108b0565b92915050565b6000336105d18185856108ea565b5060019392505050565b6000806105ec83825b600092915050565b90506106006105fb82856117bd565b6108fc565b9392505050565b600033610615858285610909565b6106208585856109d8565b506001949350505050565b6000610519817f00000000000000000000000000000000000000000000000000000000000000006117d0565b600080610663836105b0565b90506106708160006105e4565b61060090826117e9565b600061068a565b60405180910390fd5b600061069584610891565b905061060033848684610a83565b6000806106af846106df565b90506106bd33848387610a83565b610600565b60606004805461052d9061173b565b6000336105d18185856109d8565b6000806106eb83610b26565b90506106fa816105e460065490565b61060090826117bd565b600061070f82610835565b841115610778576040517f08c379a000000000000000000000000000000000000000000000000000000000815260206004820152601f60248201527f455243343632363a207769746864726177206d6f7265207468616e206d6178006044820152606401610681565b6000610783856105db565b90506107923385858885610b33565b949350505050565b60006107a582610866565b84111561080e576040517f08c379a000000000000000000000000000000000000000000000000000000000815260206004820152601d60248201527f455243343632363a2072656465656d206d6f7265207468616e206d61780000006044820152606401610681565b600061081985610657565b90506107923385858489610b33565b60006105bd826000610bad565b73ffffffffffffffffffffffffffffffffffffffff81166000908152602081905260408120546105bd9060006108b0565b73ffffffffffffffffffffffffffffffffffffffff81166000908152602081905260408120546105bd565b6000806108a1836105e460065490565b90506106006103e482856117e9565b60006106006108bd610468565b6108c89060016117bd565b6108d46000600a61191c565b6002546108e191906117bd565b85919085610bdd565b6108f78383836001610c2e565b505050565b60006105bd826001610bad565b73ffffffffffffffffffffffffffffffffffffffff8381166000908152600160209081526040808320938616835292905220547fffffffffffffffffffffffffffffffffffffffffffffffffffffffffffffffff81146109d257818110156109c3576040517ffb8f41b200000000000000000000000000000000000000000000000000000000815273ffffffffffffffffffffffffffffffffffffffff841660048201526024810182905260448101839052606401610681565b6109d284848484036000610c2e565b50505050565b73ffffffffffffffffffffffffffffffffffffffff8316610a28576040517f96c6fd1e00000000000000000000000000000000000000000000000000000000815260006004820152602401610681565b73ffffffffffffffffffffffffffffffffffffffff8216610a78576040517fec442f0500000000000000000000000000000000000000000000000000000000815260006004820152602401610681565b6108f7838383610d76565b6000610a92836105e460065490565b90506000610ab560055473ffffffffffffffffffffffffffffffffffffffff1690565b9050610ac386868686610f21565b600082118015610ae9575073ffffffffffffffffffffffffffffffffffffffff81163014155b15610b1a57610b1a7f00000000000000000000000000000000000000000000000000000000000000005b8284610fbf565b505050505050565b5050565b60006105bd8260016108b0565b6000610b3f83826105e4565b90506000610b508787878787611040565b600082118015610b76575073ffffffffffffffffffffffffffffffffffffffff81163014155b15610ba457610ba47f0000000000000000000000000000000000000000000000000000000000000000610b13565b50505050505050565b6000610600610bbd82600a61191c565b600254610bca91906117bd565b610bd2610468565b6108e19060016117bd565b600080610beb868686611141565b9050610bf68361123c565b8015610c12575060008480610c0d57610c0d61192b565b868809115b15610c2557610c226001826117bd565b90505b95945050505050565b73ffffffffffffffffffffffffffffffffffffffff8416610c7e576040517fe602df0500000000000000000000000000000000000000000000000000000000815260006004820152602401610681565b73ffffffffffffffffffffffffffffffffffffffff8316610cce576040517f94280d6200000000000000000000000000000000000000000000000000000000815260006004820152602401610681565b73ffffffffffffffffffffffffffffffffffffffff808516600090815260016020908152604080832093871683529290522082905580156109d2578273ffffffffffffffffffffffffffffffffffffffff168473ffffffffffffffffffffffffffffffffffffffff167f8c5be1e5ebec7d5bd14f71427d1e84f3dd0314c0f7b2291e5b200ac8c7c3b92584604051610d6891815260200190565b60405180910390a350505050565b73ffffffffffffffffffffffffffffffffffffffff8316610dae578060026000828254610da391906117bd565b90915550610e609050565b73ffffffffffffffffffffffffffffffffffffffff831660009081526020819052604090205481811015610e34576040517fe450d38c00000000000000000000000000000000000000000000000000000000815273ffffffffffffffffffffffffffffffffffffffff851660048201526024810182905260448101839052606401610681565b73ffffffffffffffffffffffffffffffffffffffff841660009081526020819052604090209082900390555b73ffffffffffffffffffffffffffffffffffffffff8216610e8957600280548290039055610eb5565b73ffffffffffffffffffffffffffffffffffffffff821660009081526020819052604090208054820190555b8173ffffffffffffffffffffffffffffffffffffffff168373ffffffffffffffffffffffffffffffffffffffff167fddf252ad1be2c89b69c2b068fc378daa952ba7f163c4a11628f55a4df523b3ef83604051610f1491815260200190565b60405180910390a3505050565b610f4d7f0000000000000000000000000000000000000000000000000000000000000000853085611269565b610f5783826112af565b8273ffffffffffffffffffffffffffffffffffffffff168473ffffffffffffffffffffffffffffffffffffffff167fdcbc1c05240f31ff3ad067ef1ee35ce4997762752e3a095284754544f4c709d78484604051610d68929190918252602082015260400190565b60405173ffffffffffffffffffffffffffffffffffffffff8381166024830152604482018390526108f791859182169063a9059cbb906064015b604051602081830303815290604052915060e01b6020820180517bffffffffffffffffffffffffffffffffffffffffffffffffffffffff838183161783525050505061130b565b8273ffffffffffffffffffffffffffffffffffffffff168573ffffffffffffffffffffffffffffffffffffffff161461107e5761107e838683610909565b61108883826113a1565b6110b37f00000000000000000000000000000000000000000000000000000000000000008584610fbf565b8273ffffffffffffffffffffffffffffffffffffffff168473ffffffffffffffffffffffffffffffffffffffff168673ffffffffffffffffffffffffffffffffffffffff167ffbde797d201c681b91056529119e0b02407c7bb96a4a2c75c01fc9667232c8db8585604051611132929190918252602082015260400190565b60405180910390a45050505050565b6000838302817fffffffffffffffffffffffffffffffffffffffffffffffffffffffffffffffff85870982811083820303915050806000036111965783828161118c5761118c61192b565b0492505050610600565b8084116111cf576040517f227bc15300000000000000000000000000000000000000000000000000000000815260040160405180910390fd5b6000848688096000868103871696879004966002600389028118808a02820302808a02820302808a02820302808a02820302808a02820302808a02909103029181900381900460010186841190950394909402919094039290920491909117919091029150509392505050565b600060028260038111156112525761125261195a565b61125c9190611989565b60ff166001149050919050565b60405173ffffffffffffffffffffffffffffffffffffffff84811660248301528381166044830152606482018390526109d29186918216906323b872dd90608401610ff9565b73ffffffffffffffffffffffffffffffffffffffff82166112ff576040517fec442f0500000000000000000000000000000000000000000000000000000000815260006004820152602401610681565b610b2260008383610d76565b600061132d73ffffffffffffffffffffffffffffffffffffffff8416836113fd565b9050805160001415801561135257508080602001905181019061135091906119d2565b155b156108f7576040517f5274afe700000000000000000000000000000000000000000000000000000000815273ffffffffffffffffffffffffffffffffffffffff84166004820152602401610681565b73ffffffffffffffffffffffffffffffffffffffff82166113f1576040517f96c6fd1e00000000000000000000000000000000000000000000000000000000815260006004820152602401610681565b610b2282600083610d76565b606061060083836000846000808573ffffffffffffffffffffffffffffffffffffffff16848660405161143091906119f4565b60006040518083038185875af1925050503d806000811461146d576040519150601f19603f3d011682016040523d82523d6000602084013e611472565b606091505b509150915061148286838361148c565b9695505050505050565b60608261149c576106bd82611516565b81511580156114c0575073ffffffffffffffffffffffffffffffffffffffff84163b155b1561150f576040517f9996b31500000000000000000000000000000000000000000000000000000000815273ffffffffffffffffffffffffffffffffffffffff85166004820152602401610681565b5080610600565b8051156115265780518082602001fd5b6040517f1425ea4200000000000000000000000000000000000000000000000000000000815260040160405180910390fd5b60005b8381101561157357818101518382015260200161155b565b50506000910152565b602081526000825180602084015261159b816040850160208701611558565b601f017fffffffffffffffffffffffffffffffffffffffffffffffffffffffffffffffe0169190910160400192915050565b6000602082840312156115df57600080fd5b5035919050565b803573ffffffffffffffffffffffffffffffffffffffff8116811461160a57600080fd5b919050565b6000806040838503121561162257600080fd5b61162b836115e6565b946020939093013593505050565b60008060006060848603121561164e57600080fd5b611657846115e6565b9250611665602085016115e6565b9150604084013590509250925092565b60006020828403121561168757600080fd5b610600826115e6565b600080604083850312156116a357600080fd5b823591506116b3602084016115e6565b90509250929050565b6000806000606084860312156116d157600080fd5b833592506116e1602085016115e6565b91506116ef604085016115e6565b90509250925092565b6000806040838503121561170b57600080fd5b611714836115e6565b91506116b3602084016115e6565b60006020828403121561173457600080fd5b5051919050565b600181811c9082168061174f57607f821691505b602082108103611788577f4e487b7100000000000000000000000000000000000000000000000000000000600052602260045260246000fd5b50919050565b7f4e487b7100000000000000000000000000000000000000000000000000000000600052601160045260246000fd5b808201808211156105bd576105bd61178e565b60ff81811683821601908111156105bd576105bd61178e565b818103818111156105bd576105bd61178e565b600181815b8085111561185557817fffffffffffffffffffffffffffffffffffffffffffffffffffffffffffffffff0482111561183b5761183b61178e565b8085161561184857918102915b93841c9390800290611801565b509250929050565b60008261186c575060016105bd565b81611879575060006105bd565b816001811461188f5760028114611899576118b5565b60019150506105bd565b60ff8411156118aa576118aa61178e565b50506001821b6105bd565b5060208310610133831016604e8410600b84101617156118d8575081810a6105bd565b6118e283836117fc565b807fffffffffffffffffffffffffffffffffffffffffffffffffffffffffffffffff048211156119145761191461178e565b029392505050565b600061060060ff84168361185d565b7f4e487b7100000000000000000000000000000000000000000000000000000000600052601260045260246000fd5b7f4e487b7100000000000000000000000000000000000000000000000000000000600052602160045260246000fd5b600060ff8316806119c3577f4e487b7100000000000000000000000000000000000000000000000000000000600052601260045260246000fd5b8060ff84160691505092915050565b6000602082840312156119e457600080fd5b8151801515811461060057600080fd5b60008251611a06818460208701611558565b919091019291505056fea2646970667358221220dd6487505dcd6c01b2a01e49899d784b0017f23fd0bcfdc7935e77e635c9650764736f6c63430008180033","linkReferences":{}},"methodIdentifiers":{"allowance(address,address)":"dd62ed3e","approve(address,uint256)":"095ea7b3","asset()":"38d52e0f","balanceOf(address)":"70a08231","convertToAssets(uint256)":"07a2d13a","convertToShares(uint256)":"c6e6f592","decimals()":"313ce567","deposit(uint256,address)":"6e553f65","entryFeeBasisPoints()":"ba0af7a9","maxDeposit(address)":"402d267d","maxMint(address)":"c63d75b6","maxRedeem(address)":"d905777e","maxWithdraw(address)":"ce96cb77","mint(uint256,address)":"94bf804d","name()":"06fdde03","previewDeposit(uint256)":"ef8b30f7","previewMint(uint256)":"b3d7f6b9","previewRedeem(uint256)":"4cdad506","previewWithdraw(uint256)":"0a28a477","redeem(uint256,address,address)":"ba087652","symbol()":"95d89b41","totalAssets()":"01e1d114","totalSupply()":"18160ddd","transfer(address,uint256)":"a9059cbb","transferFrom(address,address,uint256)":"23b872dd","vaultOwner()":"1f52692b","withdraw(uint256,address,address)":"b460af94"},"id":2}